{
  "contractName": "DataRetrival",
  "abi": [
    {
      "constant": true,
      "inputs": [],
      "name": "info",
      "outputs": [
        {
          "name": "",
          "type": "string"
        }
      ],
      "payable": false,
      "stateMutability": "view",
      "type": "function"
    },
    {
      "inputs": [],
      "payable": false,
      "stateMutability": "nonpayable",
      "type": "constructor"
    },
    {
      "anonymous": false,
      "inputs": [
        {
          "indexed": false,
          "name": "information",
          "type": "string"
        }
      ],
      "name": "LogNewInfo",
      "type": "event"
    },
    {
      "anonymous": false,
      "inputs": [
        {
          "indexed": false,
          "name": "description",
          "type": "string"
        }
      ],
      "name": "LogNewProvableQuery",
      "type": "event"
    },
    {
      "constant": false,
      "inputs": [
        {
          "name": "myid",
          "type": "bytes32"
        },
        {
          "name": "result",
          "type": "string"
        }
      ],
      "name": "__callback",
      "outputs": [],
      "payable": false,
      "stateMutability": "nonpayable",
      "type": "function"
    },
    {
      "constant": false,
      "inputs": [
        {
          "name": "_myid",
          "type": "bytes32"
        },
        {
          "name": "_result",
          "type": "string"
        },
        {
          "name": "_proof",
          "type": "bytes"
        }
      ],
      "name": "__callback",
      "outputs": [],
      "payable": false,
      "stateMutability": "nonpayable",
      "type": "function"
    },
    {
      "constant": false,
      "inputs": [],
      "name": "update",
      "outputs": [],
      "payable": true,
      "stateMutability": "payable",
      "type": "function"
    }
  ],
  "bytecode": "0x60806040523480156200001157600080fd5b50620000256401000000006200002b810204565b62000ad4565b6040805160208082526036908201527f50726f7661626c65207175657279207761732073656e742c207374616e64696e818301527f6720627920666f722074686520616e737765722e2e2e00000000000000000000606082015290517fc4dc360d0a9c0677a3379ae0a3d81e887f761e65fdf3d7e00859d1bcd3c473899181900360800190a16200015d6040805190810160405280600481526020017f4950465300000000000000000000000000000000000000000000000000000000815250606060405190810160405280602e81526020017f516d65567767356a46454878726e7677345776744575757054656a45546a667a81526020017f4d45434c3455696864747642723900000000000000000000000000000000000081525062000160640100000000026401000000009004565b50565b600154600090600160a060020a031615806200019957506001546200019790600160a060020a0316640100000000620005ba810204565b155b15620001b657620001b46000640100000000620005be810204565b505b600160009054906101000a9004600160a060020a0316600160a060020a03166338cc48316040518163ffffffff167c0100000000000000000000000000000000000000000000000000000000028152600401602060405180830381600087803b1580156200022357600080fd5b505af115801562000238573d6000803e3d6000fd5b505050506040513d60208110156200024f57600080fd5b5051600054600160a060020a039081169116146200032257600160009054906101000a9004600160a060020a0316600160a060020a03166338cc48316040518163ffffffff167c0100000000000000000000000000000000000000000000000000000000028152600401602060405180830381600087803b158015620002d457600080fd5b505af1158015620002e9573d6000803e3d6000fd5b505050506040513d60208110156200030057600080fd5b505160008054600160a060020a031916600160a060020a039092169190911790555b600080546040517f524f3889000000000000000000000000000000000000000000000000000000008152602060048201818152875160248401528751600160a060020a039094169363524f38899389938392604490920191908501908083838b5b838110156200039d57818101518382015260200162000383565b50505050905090810190601f168015620003cb5780820380516001836020036101000a031916815260200191505b5092505050602060405180830381600087803b158015620003eb57600080fd5b505af115801562000400573d6000803e3d6000fd5b505050506040513d60208110156200041757600080fd5b50519050670de0b6b3a764000062030d403a02018111156200043e575060009050620005b4565b600080546040517fadf59f9900000000000000000000000000000000000000000000000000000000815260048101838152606060248301908152885160648401528851600160a060020a039094169463adf59f9994879491938b938b9391929091604481019160849091019060208701908083838b5b83811015620004ce578181015183820152602001620004b4565b50505050905090810190601f168015620004fc5780820380516001836020036101000a031916815260200191505b50838103825284518152845160209182019186019080838360005b838110156200053157818101518382015260200162000517565b50505050905090810190601f1680156200055f5780820380516001836020036101000a031916815260200191505b50955050505050506020604051808303818588803b1580156200058157600080fd5b505af115801562000596573d6000803e3d6000fd5b50505050506040513d6020811015620005ae57600080fd5b50519150505b92915050565b3b90565b6000620005b4640100000000620005d3810204565b600080620005fe731d3b2638a7cc9f2cb3d298a3da7a90b67e5506ed640100000000620005ba810204565b11156200067c5760018054600160a060020a031916731d3b2638a7cc9f2cb3d298a3da7a90b67e5506ed17905560408051808201909152600b81527f6574685f6d61696e6e65740000000000000000000000000000000000000000006020820152620006739064010000000062000a19810204565b50600162000a16565b6000620006a673c03a2615d5efaf5f49f60b7bb6583eaec212fdf1640100000000620005ba810204565b11156200071b5760018054600160a060020a03191673c03a2615d5efaf5f49f60b7bb6583eaec212fdf117905560408051808201909152600c81527f6574685f726f707374656e3300000000000000000000000000000000000000006020820152620006739064010000000062000a19810204565b60006200074573b7a07bcf2ba2f2703b24c0691b5278999c59ac7e640100000000620005ba810204565b1115620007ba5760018054600160a060020a03191673b7a07bcf2ba2f2703b24c0691b5278999c59ac7e17905560408051808201909152600981527f6574685f6b6f76616e00000000000000000000000000000000000000000000006020820152620006739064010000000062000a19810204565b6000620007e473146500cfd35b22e4a392fe0adc06de1a1368ed48640100000000620005ba810204565b1115620008595760018054600160a060020a03191673146500cfd35b22e4a392fe0adc06de1a1368ed4817905560408051808201909152600b81527f6574685f72696e6b6562790000000000000000000000000000000000000000006020820152620006739064010000000062000a19810204565b60006200088373a2998efd205fb9d4b4963afb70778d6354ad3a41640100000000620005ba810204565b1115620008f85760018054600160a060020a03191673a2998efd205fb9d4b4963afb70778d6354ad3a4117905560408051808201909152600a81527f6574685f676f65726c69000000000000000000000000000000000000000000006020820152620006739064010000000062000a19810204565b600062000922736f485c8bf6fc43ea212e93bbf8ce046c7f1cb475640100000000620005ba810204565b111562000956575060018054600160a060020a031916736f485c8bf6fc43ea212e93bbf8ce046c7f1cb47517815562000a16565b6000620009807320e12a1f859b3feae5fb2a0a32c18f5a65555bbf640100000000620005ba810204565b1115620009b4575060018054600160a060020a0319167320e12a1f859b3feae5fb2a0a32c18f5a65555bbf17815562000a16565b6000620009de7351efaf4c8b3c9afbd5ab9f4bbc82784ab6ef8faa640100000000620005ba810204565b111562000a12575060018054600160a060020a0319167351efaf4c8b3c9afbd5ab9f4bbc82784ab6ef8faa17815562000a16565b5060005b90565b805162000a2e90600290602084019062000a32565b5050565b828054600181600116156101000203166002900490600052602060002090601f016020900481019282601f1062000a7557805160ff191683800117855562000aa5565b8280016001018555821562000aa5579182015b8281111562000aa557825182559160200191906001019062000a88565b5062000ab392915062000ab7565b5090565b62000a1691905b8082111562000ab3576000815560010162000abe565b6110058062000ae46000396000f3fe6080604052600436106100485763ffffffff60e060020a60003504166327dc297e811461004d578063370158ea1461010957806338bbfa5014610193578063a2e62045146102d4575b600080fd5b34801561005957600080fd5b506101076004803603604081101561007057600080fd5b8135919081019060408101602082013564010000000081111561009257600080fd5b8201836020820111156100a457600080fd5b803590602001918460018302840111640100000000831117156100c657600080fd5b91908080601f0160208091040260200160405190810160405280939291908181526020018383808284376000920191909152509295506102dc945050505050565b005b34801561011557600080fd5b5061011e6103a9565b6040805160208082528351818301528351919283929083019185019080838360005b83811015610158578181015183820152602001610140565b50505050905090810190601f1680156101855780820380516001836020036101000a031916815260200191505b509250505060405180910390f35b34801561019f57600080fd5b50610107600480360360608110156101b657600080fd5b813591908101906040810160208201356401000000008111156101d857600080fd5b8201836020820111156101ea57600080fd5b8035906020019184600183028401116401000000008311171561020c57600080fd5b91908080601f016020809104026020016040519081016040528093929190818152602001838380828437600092019190915250929594936020810193503591505064010000000081111561025f57600080fd5b82018360208201111561027157600080fd5b8035906020019184600183028401116401000000008311171561029357600080fd5b91908080601f016020809104026020016040519081016040528093929190818152602001838380828437600092019190915250929550610437945050505050565b610107610468565b6102e461058c565b600160a060020a031633146102f857600080fd5b7f61dacdeb270aed6707f46a91d392751bbca3fcfbbce56e9f75cfb4e7f7866e6d816040518080602001828103825283818151815260200191508051906020019080838360005b8381101561035757818101518382015260200161033f565b50505050905090810190601f1680156103845780820380516001836020036101000a031916815260200191505b509250505060405180910390a180516103a4906005906020840190610f41565b505050565b6005805460408051602060026001851615610100026000190190941693909304601f8101849004840282018401909252818152929183018282801561042f5780601f106104045761010080835404028352916020019161042f565b820191906000526020600020905b81548152906001019060200180831161041257829003601f168201915b505050505081565b5050600080805260036020527f3617319a054d772f909f7c479a2cebe5066e836a939412e32403c99029b92eff5550565b6040805160208082526036908201527f50726f7661626c65207175657279207761732073656e742c207374616e64696e818301527f6720627920666f722074686520616e737765722e2e2e00000000000000000000606082015290517fc4dc360d0a9c0677a3379ae0a3d81e887f761e65fdf3d7e00859d1bcd3c473899181900360800190a16105896040805190810160405280600481526020017f4950465300000000000000000000000000000000000000000000000000000000815250606060405190810160405280602e81526020017f516d65567767356a46454878726e7677345776744575757054656a45546a667a81526020017f4d45434c3455696864747642723900000000000000000000000000000000000081525061077f565b50565b600154600090600160a060020a031615806105b957506001546105b790600160a060020a0316610b77565b155b156105ca576105c86000610b7b565b505b600160009054906101000a9004600160a060020a0316600160a060020a03166338cc48316040518163ffffffff1660e060020a028152600401602060405180830381600087803b15801561061d57600080fd5b505af1158015610631573d6000803e3d6000fd5b505050506040513d602081101561064757600080fd5b5051600054600160a060020a039081169116146106fd57600160009054906101000a9004600160a060020a0316600160a060020a03166338cc48316040518163ffffffff1660e060020a028152600401602060405180830381600087803b1580156106b157600080fd5b505af11580156106c5573d6000803e3d6000fd5b505050506040513d60208110156106db57600080fd5b505160008054600160a060020a031916600160a060020a039092169190911790555b6000809054906101000a9004600160a060020a0316600160a060020a031663c281d19e6040518163ffffffff1660e060020a02815260040160206040518083038186803b15801561074d57600080fd5b505afa158015610761573d6000803e3d6000fd5b505050506040513d602081101561077757600080fd5b505190505b90565b600154600090600160a060020a031615806107ac57506001546107aa90600160a060020a0316610b77565b155b156107bd576107bb6000610b7b565b505b600160009054906101000a9004600160a060020a0316600160a060020a03166338cc48316040518163ffffffff1660e060020a028152600401602060405180830381600087803b15801561081057600080fd5b505af1158015610824573d6000803e3d6000fd5b505050506040513d602081101561083a57600080fd5b5051600054600160a060020a039081169116146108f057600160009054906101000a9004600160a060020a0316600160a060020a03166338cc48316040518163ffffffff1660e060020a028152600401602060405180830381600087803b1580156108a457600080fd5b505af11580156108b8573d6000803e3d6000fd5b505050506040513d60208110156108ce57600080fd5b505160008054600160a060020a031916600160a060020a039092169190911790555b600080546040517f524f3889000000000000000000000000000000000000000000000000000000008152602060048201818152875160248401528751600160a060020a039094169363524f38899389938392604490920191908501908083838b5b83811015610969578181015183820152602001610951565b50505050905090810190601f1680156109965780820380516001836020036101000a031916815260200191505b5092505050602060405180830381600087803b1580156109b557600080fd5b505af11580156109c9573d6000803e3d6000fd5b505050506040513d60208110156109df57600080fd5b50519050670de0b6b3a764000062030d403a0201811115610a04575060009050610b71565b600080546040517fadf59f9900000000000000000000000000000000000000000000000000000000815260048101838152606060248301908152885160648401528851600160a060020a039094169463adf59f9994879491938b938b9391929091604481019160849091019060208701908083838b5b83811015610a92578181015183820152602001610a7a565b50505050905090810190601f168015610abf5780820380516001836020036101000a031916815260200191505b50838103825284518152845160209182019186019080838360005b83811015610af2578181015183820152602001610ada565b50505050905090810190601f168015610b1f5780820380516001836020036101000a031916815260200191505b50955050505050506020604051808303818588803b158015610b4057600080fd5b505af1158015610b54573d6000803e3d6000fd5b50505050506040513d6020811015610b6b57600080fd5b50519150505b92915050565b3b90565b6000610b71600080610ba0731d3b2638a7cc9f2cb3d298a3da7a90b67e5506ed610b77565b1115610c115760018054600160a060020a031916731d3b2638a7cc9f2cb3d298a3da7a90b67e5506ed17905560408051808201909152600b81527f6574685f6d61696e6e65740000000000000000000000000000000000000000006020820152610c0990610f2a565b50600161077c565b6000610c3073c03a2615d5efaf5f49f60b7bb6583eaec212fdf1610b77565b1115610c995760018054600160a060020a03191673c03a2615d5efaf5f49f60b7bb6583eaec212fdf117905560408051808201909152600c81527f6574685f726f707374656e3300000000000000000000000000000000000000006020820152610c0990610f2a565b6000610cb873b7a07bcf2ba2f2703b24c0691b5278999c59ac7e610b77565b1115610d215760018054600160a060020a03191673b7a07bcf2ba2f2703b24c0691b5278999c59ac7e17905560408051808201909152600981527f6574685f6b6f76616e00000000000000000000000000000000000000000000006020820152610c0990610f2a565b6000610d4073146500cfd35b22e4a392fe0adc06de1a1368ed48610b77565b1115610da95760018054600160a060020a03191673146500cfd35b22e4a392fe0adc06de1a1368ed4817905560408051808201909152600b81527f6574685f72696e6b6562790000000000000000000000000000000000000000006020820152610c0990610f2a565b6000610dc873a2998efd205fb9d4b4963afb70778d6354ad3a41610b77565b1115610e315760018054600160a060020a03191673a2998efd205fb9d4b4963afb70778d6354ad3a4117905560408051808201909152600a81527f6574685f676f65726c69000000000000000000000000000000000000000000006020820152610c0990610f2a565b6000610e50736f485c8bf6fc43ea212e93bbf8ce046c7f1cb475610b77565b1115610e82575060018054600160a060020a031916736f485c8bf6fc43ea212e93bbf8ce046c7f1cb47517815561077c565b6000610ea17320e12a1f859b3feae5fb2a0a32c18f5a65555bbf610b77565b1115610ed3575060018054600160a060020a0319167320e12a1f859b3feae5fb2a0a32c18f5a65555bbf17815561077c565b6000610ef27351efaf4c8b3c9afbd5ab9f4bbc82784ab6ef8faa610b77565b1115610f24575060018054600160a060020a0319167351efaf4c8b3c9afbd5ab9f4bbc82784ab6ef8faa17815561077c565b50600090565b8051610f3d906002906020840190610f41565b5050565b828054600181600116156101000203166002900490600052602060002090601f016020900481019282601f10610f8257805160ff1916838001178555610faf565b82800160010185558215610faf579182015b82811115610faf578251825591602001919060010190610f94565b50610fbb929150610fbf565b5090565b61077c91905b80821115610fbb5760008155600101610fc556fea165627a7a723058205dcf516ce8d22e93fe27e7dda21af0a265573b36068e4736dbad9b0d34d987960029",
  "source": "pragma solidity >= 0.5.0 < 0.6.0;\n\nimport \"./provableAPI.sol\";\n\ncontract DataRetrival is usingProvable {\n    string public info;\n\n    event LogNewInfo(string information);\n    event LogNewProvableQuery(string description);\n\n    constructor() public\n    {\n        update(); \n    }\n\n    function __callback(bytes32 myid, string memory result) public\n    {\n        require(msg.sender == provable_cbAddress());\n        emit LogNewInfo(result);\n        info=result;\n    }\n\n    function update() public payable\n    {\n        emit LogNewProvableQuery(\"Provable query was sent, standing by for the answer...\");\n        provable_query(\"IPFS\", \"QmeVwg5jFEHxrnvw4WvtEuupTejETjfzMECL4UihdtvBr9\");\n\n    }\n}\n",
  "sourcePath": "/home/neha/Desktop/internship/oraclize/Oracle_Contract_IPFS/contracts/DataRetrival.sol",
  "compiler": {
    "name": "solc",
    "version": "0.5.0+commit.1d4f565a.Emscripten.clang"
  },
  "schemaVersion": "3.0.20",
  "updatedAt": "2020-01-08T11:50:31.225Z",
  "devdoc": {
    "methods": {}
  },
  "userdoc": {
    "methods": {}
  }
}