{
  "contractName": "Template",
  "abi": [
    {
      "inputs": [],
      "payable": false,
      "stateMutability": "nonpayable",
      "type": "constructor"
    },
    {
      "anonymous": false,
      "inputs": [
        {
          "indexed": false,
          "internalType": "string",
          "name": "description",
          "type": "string"
        }
      ],
      "name": "LogOraclizeQuery",
      "type": "event"
    },
    {
      "anonymous": false,
      "inputs": [
        {
          "indexed": false,
          "internalType": "uint256",
          "name": "number",
          "type": "uint256"
        }
      ],
      "name": "LogResultReceived",
      "type": "event"
    },
    {
      "constant": true,
      "inputs": [],
      "name": "randomNumber",
      "outputs": [
        {
          "internalType": "uint256",
          "name": "",
          "type": "uint256"
        }
      ],
      "payable": false,
      "stateMutability": "view",
      "type": "function"
    },
    {
      "constant": false,
      "inputs": [],
      "name": "getRandomNumber",
      "outputs": [],
      "payable": true,
      "stateMutability": "payable",
      "type": "function"
    },
    {
      "constant": false,
      "inputs": [
        {
          "internalType": "bytes32",
          "name": "_myid",
          "type": "bytes32"
        },
        {
          "internalType": "string",
          "name": "_result",
          "type": "string"
        }
      ],
      "name": "__callback",
      "outputs": [],
      "payable": false,
      "stateMutability": "nonpayable",
      "type": "function"
    },
    {
      "constant": false,
      "inputs": [
        {
          "internalType": "bytes32",
          "name": "queryId",
          "type": "bytes32"
        },
        {
          "internalType": "string",
          "name": "result",
          "type": "string"
        },
        {
          "internalType": "bytes",
          "name": "proof",
          "type": "bytes"
        }
      ],
      "name": "__callback",
      "outputs": [],
      "payable": false,
      "stateMutability": "nonpayable",
      "type": "function"
    }
  ],
  "bytecode": "0x60806040523480156200001157600080fd5b50736f485c8bf6fc43ea212e93bbf8ce046c7f1cb475600160006101000a81548173ffffffffffffffffffffffffffffffffffffffff021916908373ffffffffffffffffffffffffffffffffffffffff16021790555062000082600160f81b601060f81b176200009d60201b60201c565b62000097633b9aca006200040060201b60201c565b62000ddd565b600073ffffffffffffffffffffffffffffffffffffffff16600160009054906101000a900473ffffffffffffffffffffffffffffffffffffffff1673ffffffffffffffffffffffffffffffffffffffff1614806200012d575060006200012b600160009054906101000a900473ffffffffffffffffffffffffffffffffffffffff166200071f60201b60201c565b145b1562000147576200014560006200072a60201b60201c565b505b600160009054906101000a900473ffffffffffffffffffffffffffffffffffffffff1673ffffffffffffffffffffffffffffffffffffffff166338cc48316040518163ffffffff1660e01b8152600401602060405180830381600087803b158015620001b257600080fd5b505af1158015620001c7573d6000803e3d6000fd5b505050506040513d6020811015620001de57600080fd5b810190808051906020019092919050505073ffffffffffffffffffffffffffffffffffffffff166000809054906101000a900473ffffffffffffffffffffffffffffffffffffffff1673ffffffffffffffffffffffffffffffffffffffff16146200032b57600160009054906101000a900473ffffffffffffffffffffffffffffffffffffffff1673ffffffffffffffffffffffffffffffffffffffff166338cc48316040518163ffffffff1660e01b8152600401602060405180830381600087803b158015620002ae57600080fd5b505af1158015620002c3573d6000803e3d6000fd5b505050506040513d6020811015620002da57600080fd5b81019080805190602001909291905050506000806101000a81548173ffffffffffffffffffffffffffffffffffffffff021916908373ffffffffffffffffffffffffffffffffffffffff1602179055505b6000809054906101000a900473ffffffffffffffffffffffffffffffffffffffff1673ffffffffffffffffffffffffffffffffffffffff1663688dcfd7826040518263ffffffff1660e01b815260040180827effffffffffffffffffffffffffffffffffffffffffffffffffffffffffffff19167effffffffffffffffffffffffffffffffffffffffffffffffffffffffffffff19168152602001915050600060405180830381600087803b158015620003e457600080fd5b505af1158015620003f9573d6000803e3d6000fd5b5050505050565b600073ffffffffffffffffffffffffffffffffffffffff16600160009054906101000a900473ffffffffffffffffffffffffffffffffffffffff1673ffffffffffffffffffffffffffffffffffffffff16148062000490575060006200048e600160009054906101000a900473ffffffffffffffffffffffffffffffffffffffff166200071f60201b60201c565b145b15620004aa57620004a860006200072a60201b60201c565b505b600160009054906101000a900473ffffffffffffffffffffffffffffffffffffffff1673ffffffffffffffffffffffffffffffffffffffff166338cc48316040518163ffffffff1660e01b8152600401602060405180830381600087803b1580156200051557600080fd5b505af11580156200052a573d6000803e3d6000fd5b505050506040513d60208110156200054157600080fd5b810190808051906020019092919050505073ffffffffffffffffffffffffffffffffffffffff166000809054906101000a900473ffffffffffffffffffffffffffffffffffffffff1673ffffffffffffffffffffffffffffffffffffffff16146200068e57600160009054906101000a900473ffffffffffffffffffffffffffffffffffffffff1673ffffffffffffffffffffffffffffffffffffffff166338cc48316040518163ffffffff1660e01b8152600401602060405180830381600087803b1580156200061157600080fd5b505af115801562000626573d6000803e3d6000fd5b505050506040513d60208110156200063d57600080fd5b81019080805190602001909291905050506000806101000a81548173ffffffffffffffffffffffffffffffffffffffff021916908373ffffffffffffffffffffffffffffffffffffffff1602179055505b6000809054906101000a900473ffffffffffffffffffffffffffffffffffffffff1673ffffffffffffffffffffffffffffffffffffffff1663ca6ad1e4826040518263ffffffff1660e01b815260040180828152602001915050600060405180830381600087803b1580156200070357600080fd5b505af115801562000718573d6000803e3d6000fd5b5050505050565b6000813b9050919050565b60006200073c6200074360201b60201c565b9050919050565b6000806200076b731d3b2638a7cc9f2cb3d298a3da7a90b67e5506ed6200071f60201b60201c565b11156200081757731d3b2638a7cc9f2cb3d298a3da7a90b67e5506ed600160006101000a81548173ffffffffffffffffffffffffffffffffffffffff021916908373ffffffffffffffffffffffffffffffffffffffff1602179055506200080d6040518060400160405280600b81526020017f6574685f6d61696e6e657400000000000000000000000000000000000000000081525062000d1260201b60201c565b6001905062000d0f565b60006200083e73c03a2615d5efaf5f49f60b7bb6583eaec212fdf16200071f60201b60201c565b1115620008ea5773c03a2615d5efaf5f49f60b7bb6583eaec212fdf1600160006101000a81548173ffffffffffffffffffffffffffffffffffffffff021916908373ffffffffffffffffffffffffffffffffffffffff160217905550620008e06040518060400160405280600c81526020017f6574685f726f707374656e33000000000000000000000000000000000000000081525062000d1260201b60201c565b6001905062000d0f565b60006200091173b7a07bcf2ba2f2703b24c0691b5278999c59ac7e6200071f60201b60201c565b1115620009bd5773b7a07bcf2ba2f2703b24c0691b5278999c59ac7e600160006101000a81548173ffffffffffffffffffffffffffffffffffffffff021916908373ffffffffffffffffffffffffffffffffffffffff160217905550620009b36040518060400160405280600981526020017f6574685f6b6f76616e000000000000000000000000000000000000000000000081525062000d1260201b60201c565b6001905062000d0f565b6000620009e473146500cfd35b22e4a392fe0adc06de1a1368ed486200071f60201b60201c565b111562000a905773146500cfd35b22e4a392fe0adc06de1a1368ed48600160006101000a81548173ffffffffffffffffffffffffffffffffffffffff021916908373ffffffffffffffffffffffffffffffffffffffff16021790555062000a866040518060400160405280600b81526020017f6574685f72696e6b65627900000000000000000000000000000000000000000081525062000d1260201b60201c565b6001905062000d0f565b600062000ab773a2998efd205fb9d4b4963afb70778d6354ad3a416200071f60201b60201c565b111562000b635773a2998efd205fb9d4b4963afb70778d6354ad3a41600160006101000a81548173ffffffffffffffffffffffffffffffffffffffff021916908373ffffffffffffffffffffffffffffffffffffffff16021790555062000b596040518060400160405280600a81526020017f6574685f676f65726c690000000000000000000000000000000000000000000081525062000d1260201b60201c565b6001905062000d0f565b600062000b8a736f485c8bf6fc43ea212e93bbf8ce046c7f1cb4756200071f60201b60201c565b111562000bf057736f485c8bf6fc43ea212e93bbf8ce046c7f1cb475600160006101000a81548173ffffffffffffffffffffffffffffffffffffffff021916908373ffffffffffffffffffffffffffffffffffffffff1602179055506001905062000d0f565b600062000c177320e12a1f859b3feae5fb2a0a32c18f5a65555bbf6200071f60201b60201c565b111562000c7d577320e12a1f859b3feae5fb2a0a32c18f5a65555bbf600160006101000a81548173ffffffffffffffffffffffffffffffffffffffff021916908373ffffffffffffffffffffffffffffffffffffffff1602179055506001905062000d0f565b600062000ca47351efaf4c8b3c9afbd5ab9f4bbc82784ab6ef8faa6200071f60201b60201c565b111562000d0a577351efaf4c8b3c9afbd5ab9f4bbc82784ab6ef8faa600160006101000a81548173ffffffffffffffffffffffffffffffffffffffff021916908373ffffffffffffffffffffffffffffffffffffffff1602179055506001905062000d0f565b600090505b90565b806002908051906020019062000d2a92919062000d2e565b5050565b828054600181600116156101000203166002900490600052602060002090601f016020900481019282601f1062000d7157805160ff191683800117855562000da2565b8280016001018555821562000da2579182015b8281111562000da157825182559160200191906001019062000d84565b5b50905062000db1919062000db5565b5090565b62000dda91905b8082111562000dd657600081600090555060010162000dbc565b5090565b90565b6116bd8062000ded6000396000f3fe60806040526004361061003f5760003560e01c806327dc297e1461004457806338bbfa5014610116578063ccbac9f51461027f578063dbdff2c1146102aa575b600080fd5b34801561005057600080fd5b506101146004803603604081101561006757600080fd5b81019080803590602001909291908035906020019064010000000081111561008e57600080fd5b8201836020820111156100a057600080fd5b803590602001918460018302840111640100000000831117156100c257600080fd5b91908080601f016020809104026020016040519081016040528093929190818152602001838380828437600081840152601f19601f8201169050808301925050505050505091929192905050506102b4565b005b34801561012257600080fd5b5061027d6004803603606081101561013957600080fd5b81019080803590602001909291908035906020019064010000000081111561016057600080fd5b82018360208201111561017257600080fd5b8035906020019184600183028401116401000000008311171561019457600080fd5b91908080601f016020809104026020016040519081016040528093929190818152602001838380828437600081840152601f19601f820116905080830192505050505050509192919290803590602001906401000000008111156101f757600080fd5b82018360208201111561020957600080fd5b8035906020019184600183028401116401000000008311171561022b57600080fd5b91908080601f016020809104026020016040519081016040528093929190818152602001838380828437600081840152601f19601f8201169050808301925050505050505091929192905050506102f7565b005b34801561028b57600080fd5b506102946103d9565b6040518082815260200191505060405180910390f35b6102b26103df565b005b6102f3828260006040519080825280601f01601f1916602001820160405280156102ed5781602001600182028038833980820191505090505b506102f7565b5050565b6102ff6104ce565b73ffffffffffffffffffffffffffffffffffffffff163373ffffffffffffffffffffffffffffffffffffffff161461033657600080fd5b6006600084815260200190815260200160002060009054906101000a900460ff1661036057600080fd5b610369826107eb565b6005819055507ff701f221c51454b30553d1c1b24a54a02b40ae30f869bf9b9c0583d295ab2a176005546040518082815260200191505060405180910390a160006006600085815260200190815260200160002060006101000a81548160ff021916908315150217905550505050565b60055481565b659f295cd5f0003410156103f257600080fd5b60006104526040518060400160405280600681526020017f6e65737465640000000000000000000000000000000000000000000000000000815250604051806101e001604052806101bb81526020016114996101bb91396202ab986107ff565b90507f0415a732c27dc65a8318b1f49677f1d76eb7365d60653ee494ed0897ef70abc86040518080602001828103825260358152602001806116546035913960400191505060405180910390a160016006600083815260200190815260200160002060006101000a81548160ff02191690831515021790555050565b60008073ffffffffffffffffffffffffffffffffffffffff16600160009054906101000a900473ffffffffffffffffffffffffffffffffffffffff1673ffffffffffffffffffffffffffffffffffffffff16148061055657506000610554600160009054906101000a900473ffffffffffffffffffffffffffffffffffffffff16610d53565b145b15610567576105656000610d5e565b505b600160009054906101000a900473ffffffffffffffffffffffffffffffffffffffff1673ffffffffffffffffffffffffffffffffffffffff166338cc48316040518163ffffffff1660e01b8152600401602060405180830381600087803b1580156105d157600080fd5b505af11580156105e5573d6000803e3d6000fd5b505050506040513d60208110156105fb57600080fd5b810190808051906020019092919050505073ffffffffffffffffffffffffffffffffffffffff166000809054906101000a900473ffffffffffffffffffffffffffffffffffffffff1673ffffffffffffffffffffffffffffffffffffffff161461074457600160009054906101000a900473ffffffffffffffffffffffffffffffffffffffff1673ffffffffffffffffffffffffffffffffffffffff166338cc48316040518163ffffffff1660e01b8152600401602060405180830381600087803b1580156106c957600080fd5b505af11580156106dd573d6000803e3d6000fd5b505050506040513d60208110156106f357600080fd5b81019080805190602001909291905050506000806101000a81548173ffffffffffffffffffffffffffffffffffffffff021916908373ffffffffffffffffffffffffffffffffffffffff1602179055505b6000809054906101000a900473ffffffffffffffffffffffffffffffffffffffff1673ffffffffffffffffffffffffffffffffffffffff1663c281d19e6040518163ffffffff1660e01b815260040160206040518083038186803b1580156107ab57600080fd5b505afa1580156107bf573d6000803e3d6000fd5b505050506040513d60208110156107d557600080fd5b8101908080519060200190929190505050905090565b60006107f8826000610d6f565b9050919050565b60008073ffffffffffffffffffffffffffffffffffffffff16600160009054906101000a900473ffffffffffffffffffffffffffffffffffffffff1673ffffffffffffffffffffffffffffffffffffffff16148061088757506000610885600160009054906101000a900473ffffffffffffffffffffffffffffffffffffffff16610d53565b145b15610898576108966000610d5e565b505b600160009054906101000a900473ffffffffffffffffffffffffffffffffffffffff1673ffffffffffffffffffffffffffffffffffffffff166338cc48316040518163ffffffff1660e01b8152600401602060405180830381600087803b15801561090257600080fd5b505af1158015610916573d6000803e3d6000fd5b505050506040513d602081101561092c57600080fd5b810190808051906020019092919050505073ffffffffffffffffffffffffffffffffffffffff166000809054906101000a900473ffffffffffffffffffffffffffffffffffffffff1673ffffffffffffffffffffffffffffffffffffffff1614610a7557600160009054906101000a900473ffffffffffffffffffffffffffffffffffffffff1673ffffffffffffffffffffffffffffffffffffffff166338cc48316040518163ffffffff1660e01b8152600401602060405180830381600087803b1580156109fa57600080fd5b505af1158015610a0e573d6000803e3d6000fd5b505050506040513d6020811015610a2457600080fd5b81019080805190602001909291905050506000806101000a81548173ffffffffffffffffffffffffffffffffffffffff021916908373ffffffffffffffffffffffffffffffffffffffff1602179055505b60008060009054906101000a900473ffffffffffffffffffffffffffffffffffffffff1673ffffffffffffffffffffffffffffffffffffffff16632ef3accc86856040518363ffffffff1660e01b81526004018080602001838152602001828103825284818151815260200191508051906020019080838360005b83811015610b0b578082015181840152602081019050610af0565b50505050905090810190601f168015610b385780820380516001836020036101000a031916815260200191505b509350505050602060405180830381600087803b158015610b5857600080fd5b505af1158015610b6c573d6000803e3d6000fd5b505050506040513d6020811015610b8257600080fd5b81019080805190602001909291905050509050823a02670de0b6b3a764000001811115610bb5576000801b915050610d4c565b6000809054906101000a900473ffffffffffffffffffffffffffffffffffffffff1673ffffffffffffffffffffffffffffffffffffffff1663c51be90f8260008888886040518663ffffffff1660e01b8152600401808581526020018060200180602001848152602001838103835286818151815260200191508051906020019080838360005b83811015610c57578082015181840152602081019050610c3c565b50505050905090810190601f168015610c845780820380516001836020036101000a031916815260200191505b50838103825285818151815260200191508051906020019080838360005b83811015610cbd578082015181840152602081019050610ca2565b50505050905090810190601f168015610cea5780820380516001836020036101000a031916815260200191505b5096505050505050506020604051808303818588803b158015610d0c57600080fd5b505af1158015610d20573d6000803e3d6000fd5b50505050506040513d6020811015610d3757600080fd5b81019080805190602001909291905050509150505b9392505050565b6000813b9050919050565b6000610d68610e82565b9050919050565b600060608390506000809050600080905060008090505b8351811015610e63576030848281518110610d9d57fe5b602001015160f81c60f81b60f81c60ff1610158015610dd957506039848281518110610dc557fe5b602001015160f81c60f81b60f81c60ff1611155b15610e2b578115610dfc576000861415610df257610e63565b8580600190039650505b600a830292506030848281518110610e1057fe5b602001015160f81c60f81b60f81c60ff160383019250610e56565b602e848281518110610e3957fe5b602001015160f81c60f81b60f81c60ff161415610e5557600191505b5b8080600101915050610d86565b506000851115610e765784600a0a820291505b81935050505092915050565b600080610ea2731d3b2638a7cc9f2cb3d298a3da7a90b67e5506ed610d53565b1115610f4457731d3b2638a7cc9f2cb3d298a3da7a90b67e5506ed600160006101000a81548173ffffffffffffffffffffffffffffffffffffffff021916908373ffffffffffffffffffffffffffffffffffffffff160217905550610f3b6040518060400160405280600b81526020017f6574685f6d61696e6e65740000000000000000000000000000000000000000008152506113d9565b600190506113d6565b6000610f6373c03a2615d5efaf5f49f60b7bb6583eaec212fdf1610d53565b11156110055773c03a2615d5efaf5f49f60b7bb6583eaec212fdf1600160006101000a81548173ffffffffffffffffffffffffffffffffffffffff021916908373ffffffffffffffffffffffffffffffffffffffff160217905550610ffc6040518060400160405280600c81526020017f6574685f726f707374656e3300000000000000000000000000000000000000008152506113d9565b600190506113d6565b600061102473b7a07bcf2ba2f2703b24c0691b5278999c59ac7e610d53565b11156110c65773b7a07bcf2ba2f2703b24c0691b5278999c59ac7e600160006101000a81548173ffffffffffffffffffffffffffffffffffffffff021916908373ffffffffffffffffffffffffffffffffffffffff1602179055506110bd6040518060400160405280600981526020017f6574685f6b6f76616e00000000000000000000000000000000000000000000008152506113d9565b600190506113d6565b60006110e573146500cfd35b22e4a392fe0adc06de1a1368ed48610d53565b11156111875773146500cfd35b22e4a392fe0adc06de1a1368ed48600160006101000a81548173ffffffffffffffffffffffffffffffffffffffff021916908373ffffffffffffffffffffffffffffffffffffffff16021790555061117e6040518060400160405280600b81526020017f6574685f72696e6b6562790000000000000000000000000000000000000000008152506113d9565b600190506113d6565b60006111a673a2998efd205fb9d4b4963afb70778d6354ad3a41610d53565b11156112485773a2998efd205fb9d4b4963afb70778d6354ad3a41600160006101000a81548173ffffffffffffffffffffffffffffffffffffffff021916908373ffffffffffffffffffffffffffffffffffffffff16021790555061123f6040518060400160405280600a81526020017f6574685f676f65726c69000000000000000000000000000000000000000000008152506113d9565b600190506113d6565b6000611267736f485c8bf6fc43ea212e93bbf8ce046c7f1cb475610d53565b11156112cb57736f485c8bf6fc43ea212e93bbf8ce046c7f1cb475600160006101000a81548173ffffffffffffffffffffffffffffffffffffffff021916908373ffffffffffffffffffffffffffffffffffffffff160217905550600190506113d6565b60006112ea7320e12a1f859b3feae5fb2a0a32c18f5a65555bbf610d53565b111561134e577320e12a1f859b3feae5fb2a0a32c18f5a65555bbf600160006101000a81548173ffffffffffffffffffffffffffffffffffffffff021916908373ffffffffffffffffffffffffffffffffffffffff160217905550600190506113d6565b600061136d7351efaf4c8b3c9afbd5ab9f4bbc82784ab6ef8faa610d53565b11156113d1577351efaf4c8b3c9afbd5ab9f4bbc82784ab6ef8faa600160006101000a81548173ffffffffffffffffffffffffffffffffffffffff021916908373ffffffffffffffffffffffffffffffffffffffff160217905550600190506113d6565b600090505b90565b80600290805190602001906113ef9291906113f3565b5050565b828054600181600116156101000203166002900490600052602060002090601f016020900481019282601f1061143457805160ff1916838001178555611462565b82800160010185558215611462579182015b82811115611461578251825591602001919060010190611446565b5b50905061146f9190611473565b5090565b61149591905b80821115611491576000816000905550600101611479565b5090565b9056fe5b55524c5d205b276a736f6e2868747470733a2f2f6170692e72616e646f6d2e6f72672f6a736f6e2d7270632f312f696e766f6b65292e726573756c742e72616e646f6d5b2264617461225d272c20275c6e7b226a736f6e727063223a2022322e30222c20226d6574686f64223a202267656e65726174655369676e6564496e746567657273222c2022706172616d73223a207b20226170694b6579223a2022247b5b646563727970745d20424f7847596e31594966684a5a485446514b534b5a2f47354b32656555774f6e6c435a654f4f6c4e646d335a4b6f67755930444c654a78614f71486c363647676d547164374e4559593267366f6d4f684367754651555a6c7a334379516b38576d455a35464b57667a6e46544643484b6b52314350466f657a45726a3834756b794f6e777436614e4161534a684235674d5763654252766a5644482f7d222c20226e223a20312c20226d696e223a20312c20226d6178223a20313030302c20227265706c6163656d656e74223a20747275652c202262617365223a203130247b5b6964656e746974795d20227d227d2c20226964223a203134323135247b5b6964656e746974795d20227d227d275d4f7261636c697a65207175657279207761732073656e742c207374616e64696e6720627920666f722074686520616e737765722e2ea265627a7a72315820fd02089d302eb8ea472ca0ee9ff7634c804c068a22e58d9ded34530a3011d73364736f6c634300050c0032",
  "source": "pragma solidity ^0.5.0;\n/*\n  Import the Oraclize contract\n  outside of Remix, direct imports from GitHub may not be supported\n  instead, use a local import or just paste the Oraclize code in directly\n*/\nimport \"./OraclizeAPI_0.5.sol\";\n\ncontract Template is usingOraclize {\n    \n    // Define variables\n    uint public randomNumber; // number obtained from random.org\n    mapping(bytes32 => bool) validIds; // used for validating Query IDs\n    uint constant gasLimitForOraclize = 175000; // gas limit for Oraclize callback\n    \n    // Events used to track contract actions\n    event LogOraclizeQuery(string description);\n    event LogResultReceived(uint number);\n\n    // Constructor\n    constructor() public {\n        // set Oraclize proof type\n        OAR = OraclizeAddrResolverI(0x6f485C8BF6fc43eA212E93BBF8ce046C7f1cb475);\n        oraclize_setProof(proofType_TLSNotary | proofStorage_IPFS);\n      \n        // set gas price for Oraclize callback\n        oraclize_setCustomGasPrice(1000000000 wei); // 1 Gwei\n    }\n           \n    // Query Oraclize to get random number\n    function getRandomNumber() public payable {\n        // require ETH to cover callback gas costs\n        require(msg.value >= 0.000175 ether); // 175,000 gas * 1 Gwei = 0.000175 ETH\n      \n        // send query\n        bytes32 queryId = oraclize_query( \n          \"nested\", \n          \"[URL] ['json(https://api.random.org/json-rpc/1/invoke).result.random[\\\"data\\\"]', '\\\\n{\\\"jsonrpc\\\": \\\"2.0\\\", \\\"method\\\": \\\"generateSignedIntegers\\\", \\\"params\\\": { \\\"apiKey\\\": \\\"${[decrypt] BOxGYn1YIfhJZHTFQKSKZ/G5K2eeUwOnlCZeOOlNdm3ZKoguY0DLeJxaOqHl66GgmTqd7NEYY2g6omOhCguFQUZlz3CyQk8WmEZ5FKWfznFTFCHKkR1CPFoezErj84ukyOnwt6aNAaSJhB5gMWceBRvjVDH/}\\\", \\\"n\\\": 1, \\\"min\\\": 1, \\\"max\\\": 1000, \\\"replacement\\\": true, \\\"base\\\": 10${[identity] \\\"}\\\"}, \\\"id\\\": 14215${[identity] \\\"}\\\"}']\",\n          gasLimitForOraclize\n        );        \n                       \n        // log that query was sent\n        emit LogOraclizeQuery(\"Oraclize query was sent, standing by for the answer..\");\n      \n        // add query ID to mapping\n        validIds[queryId] = true;\n    }\n    \n    // Callback function for Oraclize once it retreives the data \n    function __callback(bytes32 queryId, string memory result, bytes memory proof) public {\n        // only allow Oraclize to call this function\n        require(msg.sender == oraclize_cbAddress());\n      \n        // validate the ID \n        require(validIds[queryId]);\n        \n        // set random number, result is of the form: [268]\n        // if we also returned serialNumber, form would be \"[3008768, [268]]\"\n        randomNumber = parseInt(result); \n      \n        // log the new number that was obtained\n        emit LogResultReceived(randomNumber); \n      \n        // reset mapping of this ID to false\n        // this ensures the callback for a given queryID never called twice\n        validIds[queryId] = false;\n    }\n    \n}",
  "sourcePath": "/home/neha/Desktop/internship/oraclize/try1/contracts/Template.sol",
  "compiler": {
    "name": "solc",
    "version": "0.5.12+commit.7709ece9.Emscripten.clang"
  },
  "schemaVersion": "3.0.20",
  "updatedAt": "2020-01-02T12:24:56.622Z",
  "networkType": "ethereum",
  "devdoc": {
    "methods": {
      "__callback(bytes32,string)": {
        "details": "The following `__callback` functions are just placeholders ideally     meant to be defined in child contract when proofs are used.     The function bodies simply silence compiler warnings."
      }
    }
  },
  "userdoc": {
    "methods": {}
  }
}